S00C000063775F332E73726563AC
S11300000C942A000C9434000C9434000C943400A6
S11300100C9434000C9434000C9434000C9434008C
S11300200C9434000C9434000C9434000C9434007C
S11300300C9434000C9434000C9434000C9434006C
S11300400C9434000C9434000C9434000C9434005C
S11300500C94340011241FBECFE5D4E0DEBFCDBF25
S11300600E9456000C946D000C94000083B78064C9
S113007083BF83B7886083BF83B7806283BF83B73E
S11300808F7E83BF83B7816083BF83B78D7F83BF38
S113009083B78B7F83BF80E18CBF089590789923C9
S11300A01CF401979F6F01968CBF08950E9436003F
S11300B0C0E0D0E0BB9ACE010196907899231CF45D
S11300C001979F6F0196EC010E944E0083EC99E02A
S11100D00197F1F700C00000EDCFF894FFCFC8
S9030000FC
