:100000000C942A000C943C000C943C000C943C0092
:100010000C943C000C943C000C943C000C943C0070
:100020000C943C000C943C000C943C000C943C0060
:100030000C943C000C943C000C943C000C943C0050
:100040000C943C000C943C000C943C000C94E20199
:100050000C943C0011241FBECFE5D4E0DEBFCDBF21
:1000600020E0A0E6B0E001C01D92A13BB207E1F79D
:100070000E94B2010C9472020C940000CF93DF93A3
:1000800000D000D0CDB7DEB789E590E029E530E0BB
:10009000F90120812260FC01208389E590E029E5B7
:1000A00030E0F90120812E7FFC01208383E590E080
:1000B00023E530E0F90120812860FC01208383E5FD
:1000C00090E023E530E0F90120812F7BFC012083C3
:1000D00083E590E023E530E0F90120812160FC0117
:1000E000208383E590E023E530E0F9012081226060
:1000F000FC01208383E590E023E530E0F9012081D5
:100100002B7FFC0120838CE590E028EEFC0120830E
:10011000789466C01A8219821C821B8242C08B812D
:100120009C81880F991F880F991F880F991F8D59DF
:100130009F4FFC018081882379F189819A81009702
:10014000F9F089819A81FC0127818B819C81880F3C
:10015000991F880F991F880F991F88599F4FFC017D
:1001600080818217C8F48B819C81880F991F880F2A
:10017000991F880F991F8F599F4F9A8389830CC0AD
:100180008B819C81880F991F880F991F880F991F59
:100190008F599F4F9A8389838B819C8101969C8381
:1001A0008B8380916000282F30E08B819C818217A7
:1001B00093070CF4B4CF89819A81009789F08981E3
:1001C0009A81FC018281282F215089819A81FC012A
:1001D000228389819A81FC0180819181FC010995AA
:1001E00080916000882309F095CF0F900F900F90B9
:1001F0000F90DF91CF910895CF93DF9300D000D07F
:100200001F92CDB7DEB79A8389837C836B834D833E
:1002100080916000882F90E001968A3091050CF063
:1002200055C080916000882F90E0880F991F880F3B
:10023000991F880F991F8F599F4F29813A81FC017F
:100240003183208380916000882F90E0880F991F70
:10025000880F991F880F991F8D599F4F21E0FC012E
:10026000208380916000882F90E0880F991F880F6D
:10027000991F880F991F8A599F4F21E030E0FC0198
:100280003183208380916000882F90E0880F991F30
:10029000880F991F880F991F88599F4F2D81FC0146
:1002A000208340916000842F90E0880F991F880F71
:1002B000991F880F991F8C599F4F2B813C81FC01FE
:1002C00031832083842F8F5F809360000F900F9085
:1002D0000F900F900F90DF91CF910895CF93DF9300
:1002E000CDB7DEB78BE390E02BE330E0F90130814E
:1002F00021E02327FC012083DF91CF910895CF9344
:10030000DF93CDB7DEB78BE390E02BE330E0F9016C
:10031000308122E02327FC012083DF91CF910895D3
:10032000CF93DF93CDB7DEB78BE390E02BE330E0E4
:10033000F901308124E02327FC012083DF91CF9154
:100340000895CF93DF93CDB7DEB78BE390E02BE337
:1003500030E0F901308128E02327FC012083DF9180
:10036000CF910895CF93DF93CDB7DEB78AE390E0C6
:100370002FEFFC0120838BE390E0FC01108240E032
:1003800061E070E08EE691E00E94FC0041E062E0F6
:1003900070E08FE791E00E94FC0042E063E070E0D3
:1003A00080E991E00E94FC0043E064E070E081EAB3
:1003B00091E00E94FC000E943E0080E090E0DF910E
:1003C000CF9108951F920F9200905F000F92112419
:1003D0002F933F938F939F93EF93FF93CF93DF934D
:1003E00000D01F92CDB7DEB7198265C08981882FF2
:1003F00090E0880F991F880F991F880F991F8F59B8
:100400009F4F9B838A838A819B81FC018381948196
:10041000009749F18A819B81FC01858196819C012D
:10042000215031098A819B81FC01368325838A8191
:100430009B81FC01858196810097D1F58A819B8102
:10044000FC01238134818A819B81FC0136832583D1
:100450008A819B81FC018281282F2F5F8A819B8169
:10046000FC01228325C08A819B81FC0185819681C4
:100470000097F1F08A819B81FC01858196819C0126
:10048000215031098A819B81FC01368325838A8131
:100490009B81FC0185819681009751F48A819B8123
:1004A000FC018281282F2F5F8A819B81FC0122839E
:1004B00089818F5F8983809160009981981708F402
:1004C00095CF0F900F900F90DF91CF91FF91EF910B
:1004D0009F918F913F912F910F9000925F000F900D
:0804E0001F901895F894FFCF5E
:00000001FF
